{
  "contractName": "Certificate",
  "abi": [
    {
      "inputs": [],
      "payable": false,
      "stateMutability": "nonpayable",
      "type": "constructor"
    },
    {
      "anonymous": false,
      "inputs": [
        {
          "indexed": false,
          "name": "certificatename",
          "type": "string"
        },
        {
          "indexed": false,
          "name": "receiver",
          "type": "string"
        }
      ],
      "name": "CertificateGiven",
      "type": "event"
    },
    {
      "constant": false,
      "inputs": [
        {
          "name": "name",
          "type": "string"
        },
        {
          "name": "receiver",
          "type": "string"
        }
      ],
      "name": "setCertificate",
      "outputs": [],
      "payable": false,
      "stateMutability": "nonpayable",
      "type": "function"
    },
    {
      "constant": true,
      "inputs": [
        {
          "name": "name",
          "type": "string"
        }
      ],
      "name": "getCertificate",
      "outputs": [
        {
          "name": "receiver",
          "type": "string"
        }
      ],
      "payable": false,
      "stateMutability": "view",
      "type": "function"
    }
  ],
  "bytecode": "0x608060405234801561001057600080fd5b50336000806101000a81548173ffffffffffffffffffffffffffffffffffffffff021916908373ffffffffffffffffffffffffffffffffffffffff1602179055506106ea806100606000396000f3fe608060405234801561001057600080fd5b50600436106100365760003560e01c8063bc51ddcb1461003b578063ed0f2e751461018d575b600080fd5b61018b6004803603604081101561005157600080fd5b810190808035906020019064010000000081111561006e57600080fd5b82018360208201111561008057600080fd5b803590602001918460018302840111640100000000831117156100a257600080fd5b91908080601f016020809104026020016040519081016040528093929190818152602001838380828437600081840152601f19601f8201169050808301925050505050505091929192908035906020019064010000000081111561010557600080fd5b82018360208201111561011757600080fd5b8035906020019184600183028401116401000000008311171561013957600080fd5b91908080601f016020809104026020016040519081016040528093929190818152602001838380828437600081840152601f19601f8201169050808301925050505050505091929192905050506102c1565b005b610246600480360360208110156101a357600080fd5b81019080803590602001906401000000008111156101c057600080fd5b8201836020820111156101d257600080fd5b803590602001918460018302840111640100000000831117156101f457600080fd5b91908080601f016020809104026020016040519081016040528093929190818152602001838380828437600081840152601f19601f82011690508083019250505050505050919291929050505061050e565b6040518080602001828103825283818151815260200191508051906020019080838360005b8381101561028657808201518184015260208101905061026b565b50505050905090810190601f1680156102b35780820380516001836020036101000a031916815260200191505b509250505060405180910390f35b3373ffffffffffffffffffffffffffffffffffffffff166000809054906101000a900473ffffffffffffffffffffffffffffffffffffffff1673ffffffffffffffffffffffffffffffffffffffff1614610383576040517f08c379a00000000000000000000000000000000000000000000000000000000081526004018080602001828103825260128152602001807f556e617574686f72697a6564207573657221000000000000000000000000000081525060200191505060405180910390fd5b806001836040518082805190602001908083835b602083106103ba5780518252602082019150602081019050602083039250610397565b6001836020036101000a03801982511681845116808217855250505050505090500191505090815260200160405180910390209080519060200190610400929190610619565b507f2e64c0b9d6cab9d8c42fdbbb1d639746a7b257870bb42b09d181286ca5957cc68282604051808060200180602001838103835285818151815260200191508051906020019080838360005b8381101561046857808201518184015260208101905061044d565b50505050905090810190601f1680156104955780820380516001836020036101000a031916815260200191505b50838103825284818151815260200191508051906020019080838360005b838110156104ce5780820151818401526020810190506104b3565b50505050905090810190601f1680156104fb5780820380516001836020036101000a031916815260200191505b5094505050505060405180910390a15050565b60606001826040518082805190602001908083835b602083106105465780518252602082019150602081019050602083039250610523565b6001836020036101000a03801982511681845116808217855250505050505090500191505090815260200160405180910390208054600181600116156101000203166002900480601f01602080910402602001604051908101604052809291908181526020018280546001816001161561010002031660029004801561060d5780601f106105e25761010080835404028352916020019161060d565b820191906000526020600020905b8154815290600101906020018083116105f057829003601f168201915b50505050509050919050565b828054600181600116156101000203166002900490600052602060002090601f016020900481019282601f1061065a57805160ff1916838001178555610688565b82800160010185558215610688579182015b8281111561068757825182559160200191906001019061066c565b5b5090506106959190610699565b5090565b6106bb91905b808211156106b757600081600090555060010161069f565b5090565b9056fea165627a7a723058201d4b14defa738776bcea15361ad64fc542d098dea3d8f3f8a8bd9c3071533b5d0029",
  "source": "pragma solidity ^0.5.0;\r\n\r\ncontract Certificate {\r\n  address owner;\r\n  mapping(string => string) certificates;\r\n  event CertificateGiven(string certificatename, string receiver);\r\n\r\n  constructor() public {\r\n    owner = msg.sender;\r\n  }\r\n\r\n  function setCertificate(string memory name, string memory receiver) public {\r\n    require(owner == msg.sender, 'Unauthorized user!');\r\n    certificates[name] = receiver;\r\n    emit CertificateGiven(name, receiver);\r\n  }\r\n\r\n  function getCertificate(string memory name) public view returns (string memory receiver) {\r\n    return certificates[name];\r\n  }\r\n}",
  "sourcePath": "C:/blocksphere/finhacks/contracts/Certificate.sol",
  "compiler": {
    "name": "solc",
    "version": "0.5.8+commit.23d335f2.Emscripten.clang"
  },
  "schemaVersion": "3.0.15",
  "updatedAt": "2019-11-22T19:24:35.184Z",
  "devdoc": {
    "methods": {}
  },
  "userdoc": {
    "methods": {}
  }
}